{
  "contractName": "CryptoPhoenixes",
  "abi": [
    {
      "constant": false,
      "inputs": [],
      "name": "closeBeta",
      "outputs": [],
      "payable": false,
      "stateMutability": "nonpayable",
      "type": "function"
    },
    {
      "constant": true,
      "inputs": [],
      "name": "EXPLOSION_DENOMINATOR",
      "outputs": [
        {
          "name": "",
          "type": "uint256"
        }
      ],
      "payable": false,
      "stateMutability": "view",
      "type": "function"
    },
    {
      "constant": false,
      "inputs": [
        {
          "name": "_payoutPercentages",
          "type": "uint256[]"
        },
        {
          "name": "_explosivePowers",
          "type": "uint256[]"
        },
        {
          "name": "_cooldowns",
          "type": "uint256[]"
        }
      ],
      "name": "createMultiplePhoenixes",
      "outputs": [],
      "payable": false,
      "stateMutability": "nonpayable",
      "type": "function"
    },
    {
      "constant": false,
      "inputs": [],
      "name": "withdrawFunds",
      "outputs": [],
      "payable": false,
      "stateMutability": "nonpayable",
      "type": "function"
    },
    {
      "constant": false,
      "inputs": [],
      "name": "unpause",
      "outputs": [],
      "payable": false,
      "stateMutability": "nonpayable",
      "type": "function"
    },
    {
      "constant": true,
      "inputs": [
        {
          "name": "_phoenixId",
          "type": "uint256"
        }
      ],
      "name": "getPhoenix",
      "outputs": [
        {
          "name": "price",
          "type": "uint256"
        },
        {
          "name": "nextPrice",
          "type": "uint256"
        },
        {
          "name": "dividendPayout",
          "type": "uint256"
        },
        {
          "name": "effectivePayout",
          "type": "uint256"
        },
        {
          "name": "explosivePower",
          "type": "uint256"
        },
        {
          "name": "cooldown",
          "type": "uint256"
        },
        {
          "name": "nextExplosionTime",
          "type": "uint256"
        },
        {
          "name": "previousOwner",
          "type": "address"
        },
        {
          "name": "currentOwner",
          "type": "address"
        }
      ],
      "payable": false,
      "stateMutability": "view",
      "type": "function"
    },
    {
      "constant": false,
      "inputs": [
        {
          "name": "_percentage",
          "type": "uint256"
        }
      ],
      "name": "setLowerPricePercentage",
      "outputs": [],
      "payable": false,
      "stateMutability": "nonpayable",
      "type": "function"
    },
    {
      "constant": true,
      "inputs": [],
      "name": "paused",
      "outputs": [
        {
          "name": "",
          "type": "bool"
        }
      ],
      "payable": false,
      "stateMutability": "view",
      "type": "function"
    },
    {
      "constant": false,
      "inputs": [
        {
          "name": "_phoenixId",
          "type": "uint256"
        },
        {
          "name": "_payoutPercentage",
          "type": "uint256"
        }
      ],
      "name": "setDividendPayout",
      "outputs": [],
      "payable": false,
      "stateMutability": "nonpayable",
      "type": "function"
    },
    {
      "constant": true,
      "inputs": [],
      "name": "HIGHER_PRICE_RESET_PERCENTAGE",
      "outputs": [
        {
          "name": "",
          "type": "uint256"
        }
      ],
      "payable": false,
      "stateMutability": "view",
      "type": "function"
    },
    {
      "constant": false,
      "inputs": [
        {
          "name": "_price",
          "type": "uint256"
        }
      ],
      "name": "setPriceCutoff",
      "outputs": [],
      "payable": false,
      "stateMutability": "nonpayable",
      "type": "function"
    },
    {
      "constant": true,
      "inputs": [
        {
          "name": "",
          "type": "address"
        }
      ],
      "name": "devFunds",
      "outputs": [
        {
          "name": "",
          "type": "uint256"
        }
      ],
      "payable": false,
      "stateMutability": "view",
      "type": "function"
    },
    {
      "constant": false,
      "inputs": [
        {
          "name": "_phoenixId",
          "type": "uint256"
        }
      ],
      "name": "explodePhoenix",
      "outputs": [],
      "payable": false,
      "stateMutability": "nonpayable",
      "type": "function"
    },
    {
      "constant": false,
      "inputs": [
        {
          "name": "_phoenixId",
          "type": "uint256"
        },
        {
          "name": "_explosivePower",
          "type": "uint256"
        }
      ],
      "name": "setExplosivePower",
      "outputs": [],
      "payable": false,
      "stateMutability": "nonpayable",
      "type": "function"
    },
    {
      "constant": true,
      "inputs": [
        {
          "name": "",
          "type": "address"
        }
      ],
      "name": "userFunds",
      "outputs": [
        {
          "name": "",
          "type": "uint256"
        }
      ],
      "payable": false,
      "stateMutability": "view",
      "type": "function"
    },
    {
      "constant": false,
      "inputs": [],
      "name": "pause",
      "outputs": [],
      "payable": false,
      "stateMutability": "nonpayable",
      "type": "function"
    },
    {
      "constant": true,
      "inputs": [],
      "name": "owner",
      "outputs": [
        {
          "name": "",
          "type": "address"
        }
      ],
      "payable": false,
      "stateMutability": "view",
      "type": "function"
    },
    {
      "constant": false,
      "inputs": [
        {
          "name": "_payoutPercentage",
          "type": "uint256"
        },
        {
          "name": "_explosivePower",
          "type": "uint256"
        },
        {
          "name": "_cooldown",
          "type": "uint256"
        }
      ],
      "name": "createPhoenix",
      "outputs": [],
      "payable": false,
      "stateMutability": "nonpayable",
      "type": "function"
    },
    {
      "constant": false,
      "inputs": [
        {
          "name": "_phoenixId",
          "type": "uint256"
        }
      ],
      "name": "purchasePhoenix",
      "outputs": [],
      "payable": true,
      "stateMutability": "payable",
      "type": "function"
    },
    {
      "constant": false,
      "inputs": [
        {
          "name": "_phoenixId",
          "type": "uint256"
        },
        {
          "name": "_cooldown",
          "type": "uint256"
        }
      ],
      "name": "setCooldown",
      "outputs": [],
      "payable": false,
      "stateMutability": "nonpayable",
      "type": "function"
    },
    {
      "constant": false,
      "inputs": [
        {
          "name": "_percentage",
          "type": "uint256"
        }
      ],
      "name": "setHigherPricePercentage",
      "outputs": [],
      "payable": false,
      "stateMutability": "nonpayable",
      "type": "function"
    },
    {
      "constant": false,
      "inputs": [],
      "name": "devWithdraw",
      "outputs": [],
      "payable": false,
      "stateMutability": "nonpayable",
      "type": "function"
    },
    {
      "constant": true,
      "inputs": [],
      "name": "PHOENIX_POOL",
      "outputs": [
        {
          "name": "",
          "type": "uint256"
        }
      ],
      "payable": false,
      "stateMutability": "view",
      "type": "function"
    },
    {
      "constant": true,
      "inputs": [],
      "name": "LOWER_PRICE_RESET_PERCENTAGE",
      "outputs": [
        {
          "name": "",
          "type": "uint256"
        }
      ],
      "payable": false,
      "stateMutability": "view",
      "type": "function"
    },
    {
      "constant": false,
      "inputs": [
        {
          "name": "_amount",
          "type": "uint256"
        }
      ],
      "name": "setBasePrice",
      "outputs": [],
      "payable": false,
      "stateMutability": "nonpayable",
      "type": "function"
    },
    {
      "constant": false,
      "inputs": [
        {
          "name": "_newContract",
          "type": "address"
        }
      ],
      "name": "upgradeContract",
      "outputs": [],
      "payable": false,
      "stateMutability": "nonpayable",
      "type": "function"
    },
    {
      "constant": true,
      "inputs": [],
      "name": "subDev",
      "outputs": [
        {
          "name": "",
          "type": "address"
        }
      ],
      "payable": false,
      "stateMutability": "view",
      "type": "function"
    },
    {
      "constant": true,
      "inputs": [],
      "name": "PRICE_CUTOFF",
      "outputs": [
        {
          "name": "",
          "type": "uint256"
        }
      ],
      "payable": false,
      "stateMutability": "view",
      "type": "function"
    },
    {
      "constant": true,
      "inputs": [],
      "name": "ALLOW_BETA",
      "outputs": [
        {
          "name": "",
          "type": "bool"
        }
      ],
      "payable": false,
      "stateMutability": "view",
      "type": "function"
    },
    {
      "constant": true,
      "inputs": [],
      "name": "BASE_PRICE",
      "outputs": [
        {
          "name": "",
          "type": "uint256"
        }
      ],
      "payable": false,
      "stateMutability": "view",
      "type": "function"
    },
    {
      "inputs": [
        {
          "name": "_subDev",
          "type": "address"
        }
      ],
      "payable": false,
      "stateMutability": "nonpayable",
      "type": "constructor"
    },
    {
      "anonymous": false,
      "inputs": [
        {
          "indexed": false,
          "name": "_phoenixId",
          "type": "uint256"
        },
        {
          "indexed": false,
          "name": "oldOwner",
          "type": "address"
        },
        {
          "indexed": false,
          "name": "newOwner",
          "type": "address"
        },
        {
          "indexed": false,
          "name": "price",
          "type": "uint256"
        },
        {
          "indexed": false,
          "name": "nextPrice",
          "type": "uint256"
        }
      ],
      "name": "PhoenixPurchased",
      "type": "event"
    },
    {
      "anonymous": false,
      "inputs": [
        {
          "indexed": false,
          "name": "phoenixId",
          "type": "uint256"
        },
        {
          "indexed": false,
          "name": "owner",
          "type": "address"
        },
        {
          "indexed": false,
          "name": "payout",
          "type": "uint256"
        },
        {
          "indexed": false,
          "name": "price",
          "type": "uint256"
        },
        {
          "indexed": false,
          "name": "nextExplosionTime",
          "type": "uint256"
        }
      ],
      "name": "PhoenixExploded",
      "type": "event"
    },
    {
      "anonymous": false,
      "inputs": [
        {
          "indexed": false,
          "name": "owner",
          "type": "address"
        }
      ],
      "name": "WithdrewFunds",
      "type": "event"
    },
    {
      "anonymous": false,
      "inputs": [],
      "name": "Pause",
      "type": "event"
    },
    {
      "anonymous": false,
      "inputs": [],
      "name": "Unpause",
      "type": "event"
    }
  ],
  "bytecode": "0x60606040526000805460a060020a60ff02191690556103e86004556005805460ff191660011790556608e1bc9bf04000600955670de0b6b3a7640000600a9081556014600b55600c55341561005357600080fd5b6040516020806116f08339810160405280805160008054600160a060020a03338116600160a060020a0319928316179092556276a7004201600655600180549290931691161790555050611644806100ac6000396000f30060606040526004361061017f5763ffffffff7c01000000000000000000000000000000000000000000000000000000006000350416630872c813811461018457806314e604b6146101995780631751dc90146101be57806324600fc31461028d5780633f4ba83a146102a0578063454aa6cf146102b357806355e7a663146103215780635c975abb146103375780635e0be75c1461035e57806362dc0133146103775780637365e1fd1461038a57806373e945f6146103a0578063777a5dc5146103bf5780637b3cf41a146103d55780638387c6e1146103ee5780638456cb591461040d5780638da5cb5b146104205780639853b2341461044f578063a48296d91461046b578063a50ed19b14610476578063ad559fd61461048f578063ad606c72146104a5578063ba081b8d146104b8578063dc35a6bd146104cb578063de4b3262146104de578063eb2c0223146104f4578063eea4cf1c14610513578063f2e3490914610526578063f37a9c1c14610539578063f86325ed1461054c575b600080fd5b341561018f57600080fd5b61019761055f565b005b34156101a457600080fd5b6101ac61057a565b60405190815260200160405180910390f35b34156101c957600080fd5b6101976004602481358181019083013580602081810201604051908101604052809392919081815260200183836020028082843782019150505050505091908035906020019082018035906020019080806020026020016040519081016040528093929190818152602001838360200280828437820191505050505050919080359060200190820180359060200190808060200260200160405190810160405280939291908181526020018383602002808284375094965061058095505050505050565b341561029857600080fd5b61019761061d565b34156102ab57600080fd5b6101976106c6565b34156102be57600080fd5b6102c9600435610756565b60405198895260208901979097526040808901969096526060880194909452608087019290925260a086015260c0850152600160a060020a0390811660e0850152909116610100830152610120909101905180910390f35b341561032c57600080fd5b61019760043561080a565b341561034257600080fd5b61034a610855565b604051901515815260200160405180910390f35b341561036957600080fd5b610197600435602435610876565b341561038257600080fd5b6101ac6108cc565b341561039557600080fd5b6101976004356108d2565b34156103ab57600080fd5b6101ac600160a060020a03600435166108f2565b34156103ca57600080fd5b610197600435610904565b34156103e057600080fd5b610197600435602435610ad4565b34156103f957600080fd5b6101ac600160a060020a0360043516610b2a565b341561041857600080fd5b610197610b3c565b341561042b57600080fd5b610433610be2565b604051600160a060020a03909116815260200160405180910390f35b341561045a57600080fd5b610197600435602435604435610bf1565b610197600435610d20565b341561048157600080fd5b6101976004356024356110b0565b341561049a57600080fd5b610197600435611106565b34156104b057600080fd5b610197611151565b34156104c357600080fd5b6101ac6111bd565b34156104d657600080fd5b6101ac6111c3565b34156104e957600080fd5b6101976004356111c9565b34156104ff57600080fd5b610197600160a060020a03600435166111f6565b341561051e57600080fd5b61043361124e565b341561053157600080fd5b6101ac61125d565b341561054457600080fd5b61034a611263565b341561055757600080fd5b6101ac61126c565b60065442101561056e57600080fd5b6005805460ff19169055565b60045481565b6000805433600160a060020a0390811691161461059c57600080fd5b82518451146105aa57600080fd5b81518351146105b857600080fd5b5060005b83518110156106175761060f8482815181106105d457fe5b906020019060200201518483815181106105ea57fe5b9060200190602002015184848151811061060057fe5b90602001906020020151610bf1565b6001016105bc565b50505050565b600160a060020a03331660009081526008602052604081205490811161064257600080fd5b600160a060020a0333166000818152600860205260408082209190915582156108fc0290839051600060405180830381858888f19350505050151561068657600080fd5b7f361d758177a1a273ab3bf5e9ae4cc4f6923af295c0e99ad3d02593c5ab8e62d433604051600160a060020a03909116815260200160405180910390a150565b60005433600160a060020a039081169116146106e157600080fd5b60005474010000000000000000000000000000000000000000900460ff16151561070a57600080fd5b6000805474ff0000000000000000000000000000000000000000191690557f7805862f689e2f13df9f062ff482ad3ad112aca9e0847911ed832e158c525b3360405160405180910390a1565b60008060008060008060008060008060028b81548110151561077457fe5b6000918252602090912060079091020180549a5090506107938a611272565b9850806001015497506107ca6107a76112e2565b60018301546107be9061271063ffffffff61133c16565b9063ffffffff61136716565b60028201546003830154600484015460058501546006909501549d9f9c9e509a9c929b919a9099509750600160a060020a03928316965091169350915050565b60005433600160a060020a0390811691161461082557600080fd5b60055460ff16151561083657600080fd5b6000811161084357600080fd5b6064811061085057600080fd5b600c55565b60005474010000000000000000000000000000000000000000900460ff1681565b6000805433600160a060020a0390811691161461089257600080fd5b60055460ff1615156108a357600080fd5b60028054849081106108b157fe5b60009182526020909120600160079092020101919091555050565b600b5481565b60005433600160a060020a039081169116146108ed57600080fd5b600a55565b60076020526000908152604090205481565b60008054819074010000000000000000000000000000000000000000900460ff161561092f57600080fd5b600280548490811061093d57fe5b6000918252602090912060066007909202019081015490925033600160a060020a0390811691161461096e57600080fd5b6003546000901161097e57600080fd5b600482015442101561098f57600080fd5b6109ae6004546107be600354856002015461133c90919063ffffffff16565b6003549091506109c4908263ffffffff61137e16565b600355600a548254106109f357600b5482546109ec916064916107be9163ffffffff61133c16565b8255610a21565b600c548254610a0e916064916107be9163ffffffff61133c16565b808355600954901015610a215760095482555b60058201805473ffffffffffffffffffffffffffffffffffffffff191633600160a060020a038116919091179091556003830154603c0242016004840155610a699082611390565b7f2218cceca87d9faf8cc3b57bf49c55a8485e836c8ae02819386ccdca6bab626383338385600001548660040154604051948552600160a060020a0390931660208501526040808501929092526060840152608083019190915260a0909101905180910390a1505050565b6000805433600160a060020a03908116911614610af057600080fd5b60055460ff161515610b0157600080fd5b6002805484908110610b0f57fe5b60009182526020909120600260079092020101919091555050565b60086020526000908152604090205481565b60005433600160a060020a03908116911614610b5757600080fd5b60005474010000000000000000000000000000000000000000900460ff1615610b7f57600080fd5b6000805474ff00000000000000000000000000000000000000001916740100000000000000000000000000000000000000001790557f6985a02210a168e66602d3235cb6db0e70f92b3ba4d376a33c0f3d9434bff62560405160405180910390a1565b600054600160a060020a031681565b610bf961152e565b60005433600160a060020a03908116911614610c1457600080fd5b60e06040519081016040528060095481526020018581526020018481526020018381526020014281526020016000600160a060020a0316815260200130600160a060020a0316815250905060028054806001018281610c73919061157e565b60009283526020909220839160070201815181556020820151816001015560408201518160020155606082015181600301556080820151816004015560a082015160058201805473ffffffffffffffffffffffffffffffffffffffff1916600160a060020a039290921691909117905560c0820151600691909101805473ffffffffffffffffffffffffffffffffffffffff1916600160a060020a03909216919091179055505050505050565b60008060008060008060008060008060008060008060149054906101000a900460ff16151515610d4f57600080fd5b600280548f908110610d5d57fe5b90600052602060002090600702019c508c600001549b508c60050160009054906101000a9004600160a060020a03169a508c60060160009054906101000a9004600160a060020a0316995033985060008c111515610dba57600080fd5b348c901015610dc857600080fd5b33600160a060020a03168a600160a060020a031614151515610de957600080fd5b610df9348d63ffffffff61137e16565b9750600160a060020a038b161515610e365760058d01805473ffffffffffffffffffffffffffffffffffffffff1916600160a060020a038b161790555b610e4d6103e86107be8e600e63ffffffff61133c16565b9650610e666103e86107be8e600663ffffffff61133c16565b9550610e7f6103e86107be8e601963ffffffff61133c16565b9450610e986103e86107be8e600563ffffffff61133c16565b9350610ea38c611403565b9250610eb58c8863ffffffff61137e16565b9150610ec7828763ffffffff61137e16565b9150610ed9828663ffffffff61137e16565b9150610eeb828563ffffffff61137e16565b9150610efd828463ffffffff61137e16565b9150610f088c611272565b808e5560068e01805473ffffffffffffffffffffffffffffffffffffffff1916600160a060020a038c81169190911790915560008054909116815260076020526040902054909150610f5a9088611467565b60008054600160a060020a03908116825260076020526040808320939093556001541681522054610f91908763ffffffff61146716565b600154600160a060020a0316600090815260076020526040902055610fb585611476565b600160a060020a038b16600090815260086020526040902054610fde908563ffffffff61146716565b600160a060020a038c1660009081526008602052604090205560035461100a908463ffffffff61146716565b60035530600160a060020a03908116908b161461102b5761102b8a83611390565b600088111561103e5761103e3389611390565b7fcdf3c356cd1a0a236d7d516f4346546464f1933182a296d2da4bd5dacaeab0d28e8b8b8f85604051948552600160a060020a039384166020860152919092166040808501919091526060840192909252608083015260a0909101905180910390a15050505050505050505050505050565b6000805433600160a060020a039081169116146110cc57600080fd5b60055460ff1615156110dd57600080fd5b60028054849081106110eb57fe5b60009182526020909120600360079092020101919091555050565b60005433600160a060020a0390811691161461112157600080fd5b60055460ff16151561113257600080fd5b6000811161113f57600080fd5b6064811061114c57600080fd5b600b55565b600160a060020a03331660009081526007602052604081205490811161117657600080fd5b600160a060020a0333166000818152600760205260408082209190915582156108fc0290839051600060405180830381858888f1935050505015156111ba57600080fd5b50565b60035481565b600c5481565b60005433600160a060020a039081169116146111e457600080fd5b600081116111f157600080fd5b600955565b60005433600160a060020a0390811691161461121157600080fd5b80600160a060020a03166108fc30600160a060020a0316319081150290604051600060405180830381858888f1935050505015156111ba57600080fd5b600154600160a060020a031681565b600a5481565b60055460ff1681565b60095481565b60006703782dace9d900008210156112a15761129a60646107be84608c63ffffffff61133c16565b90506112dd565b670de0b6b3a76400008210156112c75761129a60646107be84608263ffffffff61133c16565b61129a60646107be84607d63ffffffff61133c16565b919050565b60008080805b60025482101561133457600280548390811061130057fe5b9060005260206000209060070201905061132781600101548461146790919063ffffffff16565b92506001909101906112e8565b509092915050565b6000828202831580611358575082848281151561135557fe5b04145b151561136057fe5b9392505050565b600080828481151561137557fe5b04949350505050565b60008282111561138a57fe5b50900390565b600160a060020a03821681156108fc0282604051600060405180830381858888f1935050505015156113ff57600160a060020a0382166000908152600860205260409020546113e5908263ffffffff61146716565b600160a060020a0383166000908152600860205260409020555b5050565b60006703782dace9d9000082101561142b5761129a60646107be84600c63ffffffff61133c16565b670de0b6b3a76400008210156114515761129a60646107be84600b63ffffffff61133c16565b61129a60646107be84600a63ffffffff61133c16565b60008282018381101561136057fe5b6000806000806114846112e2565b9350600092505b6002548310156115275760028054849081106114a357fe5b906000526020600020906007020191506114ce846107be84600101548861133c90919063ffffffff16565b6006830154600160a060020a03166000908152600860205260409020549091506114fe908263ffffffff61146716565b6006830154600160a060020a03166000908152600860205260409020556001929092019161148b565b5050505050565b60e06040519081016040528060008152602001600081526020016000815260200160008152602001600081526020016000600160a060020a031681526020016000600160a060020a031681525090565b8154818355818115116115aa576007028160070283600052602060002091820191016115aa91906115af565b505050565b61161591905b80821115611611576000808255600182018190556002820181905560038201819055600482015560058101805473ffffffffffffffffffffffffffffffffffffffff1990811690915560068201805490911690556007016115b5565b5090565b905600a165627a7a723058208e01b63dfe317489dff4c007ba864320a25bebfe585a2033f978cb9889ec4d5b0029",
  "source": "pragma solidity ^0.4.18;\r\n\r\n/**\r\n * @title Ownable\r\n * @dev The Ownable contract has an owner address, and provides basic authorization control\r\n * functions, this simplifies the implementation of \"user permissions\".\r\n */\r\ncontract Ownable {\r\n  address public owner;\r\n\r\n  /**\r\n   * @dev The Ownable constructor sets the original `owner` of the contract to the sender\r\n   * account.\r\n   */\r\n  function Ownable() public {\r\n    owner = msg.sender;\r\n  }\r\n\r\n  /**\r\n   * @dev Throws if called by any account other than the owner.\r\n   */\r\n  modifier onlyOwner() {\r\n    require(msg.sender == owner);\r\n    _;\r\n  }\r\n\r\n}\r\n\r\n/**\r\n * @title Pausable\r\n * @dev Base contract which allows children to implement an emergency stop mechanism.\r\n */\r\ncontract Pausable is Ownable {\r\n  event Pause();\r\n  event Unpause();\r\n\r\n  bool public paused = false;\r\n\r\n\r\n  /**\r\n   * @dev Modifier to make a function callable only when the contract is not paused.\r\n   */\r\n  modifier whenNotPaused() {\r\n    require(!paused);\r\n    _;\r\n  }\r\n\r\n  /**\r\n   * @dev Modifier to make a function callable only when the contract is paused.\r\n   */\r\n  modifier whenPaused() {\r\n    require(paused);\r\n    _;\r\n  }\r\n\r\n  /**\r\n   * @dev called by the owner to pause, triggers stopped state\r\n   */\r\n  function pause() onlyOwner whenNotPaused public {\r\n    paused = true;\r\n    Pause();\r\n  }\r\n\r\n  /**\r\n   * @dev called by the owner to unpause, returns to normal state\r\n   */\r\n  function unpause() onlyOwner whenPaused public {\r\n    paused = false;\r\n    Unpause();\r\n  }\r\n}\r\n\r\n/**\r\n * @title SafeMath\r\n * @dev Math operations with safety checks that throw on error\r\n */\r\nlibrary SafeMath {\r\n  function mul(uint256 a, uint256 b) internal pure returns (uint256) {\r\n    uint256 c = a * b;\r\n    assert(a == 0 || c / a == b);\r\n    return c;\r\n  }\r\n\r\n  function div(uint256 a, uint256 b) internal pure returns (uint256) {\r\n    // assert(b > 0); // Solidity automatically throws when dividing by 0\r\n    uint256 c = a / b;\r\n    // assert(a == b * c + a % b); // There is no case in which this doesn't hold\r\n    return c;\r\n  }\r\n\r\n  function sub(uint256 a, uint256 b) internal pure returns (uint256) {\r\n    assert(b <= a);\r\n    return a - b;\r\n  }\r\n  \r\n  function add(uint256 a, uint256 b) internal pure returns (uint256) {\r\n    uint256 c = a + b;\r\n    assert(c >= a);\r\n    return c;\r\n  }\r\n}\r\n\r\ncontract CryptoPhoenixes is Ownable, Pausable {\r\n  using SafeMath for uint256;\r\n\r\n  address public subDev;\r\n  Phoenix[] private phoenixes;\r\n  uint256 public PHOENIX_POOL;\r\n  uint256 public EXPLOSION_DENOMINATOR = 1000; //Eg explosivePower = 30 -> 3%\r\n  bool public ALLOW_BETA = true;\r\n  uint BETA_CUTOFF;\r\n\r\n  // devFunds\r\n  mapping (address => uint256) public devFunds;\r\n\r\n  // dividends\r\n  mapping (address => uint256) public userFunds;\r\n\r\n  // Events\r\n  event PhoenixPurchased(\r\n    uint256 _phoenixId,\r\n    address oldOwner,\r\n    address newOwner,\r\n    uint256 price,\r\n    uint256 nextPrice\r\n  );\r\n  \r\n  event PhoenixExploded(\r\n      uint256 phoenixId,\r\n      address owner,\r\n      uint256 payout,\r\n      uint256 price,\r\n      uint nextExplosionTime\r\n  );\r\n\r\n  event WithdrewFunds(\r\n    address owner\r\n  );\r\n\r\n  // Caps for price changes and cutoffs\r\n  uint256 constant private QUARTER_ETH_CAP  = 0.25 ether;\r\n  uint256 constant private ONE_ETH_CAP  = 1.0 ether;\r\n  uint256 public BASE_PRICE = 0.0025 ether;\r\n  uint256 public PRICE_CUTOFF = 1.0 ether;\r\n  uint256 public HIGHER_PRICE_RESET_PERCENTAGE = 20;\r\n  uint256 public LOWER_PRICE_RESET_PERCENTAGE = 10;\r\n\r\n  // Struct to store Phoenix Data\r\n  struct Phoenix {\r\n    uint256 price;  // Current price of phoenix\r\n    uint256 dividendPayout; // The percent of the dividends pool rewarded\r\n    uint256 explosivePower; // Percentage that phoenix can claim from PHOENIX_POOL after explode() function is called\r\n    uint cooldown; // Time it takes for phoenix to recharge till next explosion\r\n    uint nextExplosionTime; // Time of next explosion\r\n    address previousOwner;  // Owner of the phoenix who triggered explosion in previous round\r\n    address currentOwner; // Owner of phoenix in current round\r\n  }\r\n\r\n// Check if game is in beta or not. Certain functions will be disabled after beta period ends.\r\n  modifier inBeta() {\r\n    require(ALLOW_BETA);\r\n    _;\r\n  }\r\n\r\n// Main function to set the beta period and sub developer\r\n  function CryptoPhoenixes(address _subDev) {\r\n    BETA_CUTOFF = now + 90 * 1 days; //Allow 3 months to tweak parameters\r\n    subDev = _subDev;\r\n  }\r\n  \r\n// Function anyone can call to turn off beta, thus disabling some functions\r\n  function closeBeta() {\r\n    require(now >= BETA_CUTOFF);\r\n    ALLOW_BETA = false;\r\n  }\r\n\r\n  function createPhoenix(uint256 _payoutPercentage, uint256 _explosivePower, uint _cooldown) onlyOwner public {\r\n    \r\n    var phoenix = Phoenix({\r\n    price: BASE_PRICE,\r\n    dividendPayout: _payoutPercentage,\r\n    explosivePower: _explosivePower,\r\n    cooldown: _cooldown,\r\n    nextExplosionTime: now,\r\n    previousOwner: address(0),\r\n    currentOwner: this\r\n    });\r\n\r\n    phoenixes.push(phoenix);\r\n  }\r\n\r\n  function createMultiplePhoenixes(uint256[] _payoutPercentages, uint256[] _explosivePowers, uint[] _cooldowns) onlyOwner public {\r\n    require(_payoutPercentages.length == _explosivePowers.length);\r\n    require(_explosivePowers.length == _cooldowns.length);\r\n    \r\n    for (uint256 i = 0; i < _payoutPercentages.length; i++) {\r\n      createPhoenix(_payoutPercentages[i],_explosivePowers[i],_cooldowns[i]);\r\n    }\r\n  }\r\n\r\n  function getPhoenix(uint256 _phoenixId) public view returns (\r\n    uint256 price,\r\n    uint256 nextPrice,\r\n    uint256 dividendPayout,\r\n    uint256 effectivePayout,\r\n    uint256 explosivePower,\r\n    uint cooldown,\r\n    uint nextExplosionTime,\r\n    address previousOwner,\r\n    address currentOwner\r\n  ) {\r\n    var phoenix = phoenixes[_phoenixId];\r\n    price = phoenix.price;\r\n    nextPrice = getNextPrice(phoenix.price);\r\n    dividendPayout = phoenix.dividendPayout;\r\n    effectivePayout = phoenix.dividendPayout.mul(10000).div(getTotalPayout());\r\n    explosivePower = phoenix.explosivePower;\r\n    cooldown = phoenix.cooldown;\r\n    nextExplosionTime = phoenix.nextExplosionTime;\r\n    previousOwner = phoenix.previousOwner;\r\n    currentOwner = phoenix.currentOwner;\r\n  }\r\n\r\n/**\r\n  * @dev Determines next price of token\r\n  * @param _price uint256 ID of current price\r\n*/\r\n  function getNextPrice (uint256 _price) private pure returns (uint256 _nextPrice) {\r\n    if (_price < QUARTER_ETH_CAP) {\r\n      return _price.mul(140).div(100); //1.4x\r\n    } else if (_price < ONE_ETH_CAP) {\r\n      return _price.mul(130).div(100); //1.3x\r\n    } else {\r\n      return _price.mul(125).div(100); //1.25x\r\n    }\r\n  }\r\n\r\n/**\r\n  * @dev Set dividend payout of phoenix\r\n  * @param _phoenixId id of phoenix\r\n  * @param _payoutPercentage uint256 Desired payout percentage\r\n*/\r\n  function setDividendPayout (uint256 _phoenixId, uint256 _payoutPercentage) onlyOwner inBeta {\r\n    Phoenix phoenix = phoenixes[_phoenixId];\r\n    phoenix.dividendPayout = _payoutPercentage;\r\n  }\r\n\r\n/**\r\n  * @dev Set explosive power of phoenix\r\n  * @param _phoenixId id of phoenix\r\n  * @param _explosivePower uint256 Desired claimable percentage from PHOENIX_POOL\r\n*/\r\n  function setExplosivePower (uint256 _phoenixId, uint256 _explosivePower) onlyOwner inBeta {\r\n    Phoenix phoenix = phoenixes[_phoenixId];\r\n    phoenix.explosivePower = _explosivePower;\r\n  }\r\n\r\n/**\r\n  * @dev Set cooldown of phoenix\r\n  * @param _phoenixId id of phoenix\r\n  * @param _cooldown uint256 Desired cooldown time\r\n*/\r\n  function setCooldown (uint256 _phoenixId, uint256 _cooldown) onlyOwner inBeta {\r\n    Phoenix phoenix = phoenixes[_phoenixId];\r\n    phoenix.cooldown = _cooldown;\r\n  }\r\n\r\n/**\r\n  * @dev Set price cutoff when determining phoenix price after explosion. To adjust for ETH price fluctuations\r\n  * @param _price uint256 Price cutoff in wei\r\n*/\r\n  function setPriceCutoff (uint256 _price) onlyOwner {\r\n    PRICE_CUTOFF = _price;\r\n  }\r\n\r\n/**\r\n  * @dev Set price percentage for when price exceeds or equates to price cutoff to reset to\r\n  * @param _percentage uint256 Desired percentage\r\n*/\r\n  function setHigherPricePercentage (uint256 _percentage) onlyOwner inBeta {\r\n    require(_percentage > 0);\r\n    require(_percentage < 100);\r\n    HIGHER_PRICE_RESET_PERCENTAGE = _percentage;\r\n  }\r\n\r\n/**\r\n  * @dev Set price percentage for when price is lower than price cutoff to reset to\r\n  * @param _percentage uint256 Desired percentage\r\n*/\r\n  function setLowerPricePercentage (uint256 _percentage) onlyOwner inBeta {\r\n    require(_percentage > 0);\r\n    require(_percentage < 100);\r\n    LOWER_PRICE_RESET_PERCENTAGE = _percentage;\r\n  }\r\n\r\n/**\r\n  * @dev Set base price for phoenixes. To adjust for ETH price fluctuations\r\n  * @param _amount uint256 Desired amount in wei\r\n*/\r\n  function setBasePrice (uint256 _amount) onlyOwner {\r\n    require(_amount > 0);\r\n    BASE_PRICE = _amount;\r\n  }\r\n\r\n/**\r\n  * @dev Purchase show from previous owner\r\n  * @param _phoenixId uint256 of token\r\n*/\r\n  function purchasePhoenix(uint256 _phoenixId) whenNotPaused public payable {\r\n    Phoenix phoenix = phoenixes[_phoenixId];\r\n    uint256 price = phoenix.price;\r\n    address previousOwner = phoenix.previousOwner;\r\n    address outgoingOwner = phoenix.currentOwner;\r\n    address incomingOwner = msg.sender;\r\n\r\n    // revert checks\r\n    require(price > 0);\r\n    require(msg.value >= price);\r\n    //prevent multiple subsequent purchases\r\n    require(outgoingOwner != msg.sender);\r\n\r\n    uint256 purchaseExcess = msg.value.sub(price);\r\n\r\n    //handle boundary case where we assign previousOwner to incomingOwner\r\n    if (previousOwner == address(0)) {\r\n        phoenix.previousOwner = incomingOwner;\r\n    }\r\n    \r\n    // Calculate pool cut for taxes.\r\n    \r\n    // 2% goes to developers\r\n    uint256 ownerCut = price.mul(14).div(1000); //1.4% to owner\r\n    uint256 subDevCut = price.mul(6).div(1000); //0.6% to subDev\r\n    \r\n    // 2.5% goes to dividends\r\n    uint256 dividendsCut = price.mul(25).div(1000);\r\n    \r\n    // 0.5% goes to owner of phoenix in previous exploded round\r\n    uint256 previousOwnerCut = price.mul(5).div(1000);\r\n\r\n    // 10-12% goes to phoenix pool\r\n    uint256 phoenixPoolCut = calculatePhoenixPoolCut(price);\r\n    \r\n    // Amount payable to old owner minus the developer's and pools' cuts.\r\n    uint256 outgoingOwnerCut = price.sub(ownerCut);\r\n    outgoingOwnerCut = outgoingOwnerCut.sub(subDevCut);\r\n    outgoingOwnerCut = outgoingOwnerCut.sub(dividendsCut);\r\n    outgoingOwnerCut = outgoingOwnerCut.sub(previousOwnerCut);\r\n    outgoingOwnerCut = outgoingOwnerCut.sub(phoenixPoolCut);\r\n    \r\n    // set new price\r\n    uint256 nextPrice = getNextPrice(price);\r\n    phoenix.price = nextPrice;\r\n\r\n    // set new owner\r\n    phoenix.currentOwner = incomingOwner;\r\n\r\n    //Actual transfer\r\n    devFunds[owner] = devFunds[owner].add(ownerCut);\r\n    devFunds[subDev] = devFunds[subDev].add(subDevCut);\r\n    distributeDividends(dividendsCut);\r\n    userFunds[previousOwner] = userFunds[previousOwner].add(previousOwnerCut);\r\n    PHOENIX_POOL = PHOENIX_POOL.add(phoenixPoolCut);\r\n\r\n    //handle boundary case where we exclude currentOwner == address(this) when transferring funds\r\n    if (outgoingOwner != address(this)) {\r\n      sendFunds(outgoingOwner,outgoingOwnerCut);\r\n    }\r\n\r\n    // Send refund to owner if needed\r\n    if (purchaseExcess > 0) {\r\n      sendFunds(msg.sender,purchaseExcess);\r\n    }\r\n\r\n    // raise event\r\n    PhoenixPurchased(_phoenixId, outgoingOwner, incomingOwner, price, nextPrice);\r\n  }\r\n\r\n  function calculatePhoenixPoolCut (uint256 _price) private pure returns (uint256 _poolCut) {\r\n      if (_price < QUARTER_ETH_CAP) {\r\n          return _price.mul(12).div(100); //12%\r\n      } else if (_price < ONE_ETH_CAP) {\r\n          return _price.mul(11).div(100); //11%\r\n      } else {\r\n          return _price.mul(10).div(100); //10%\r\n      }\r\n  }\r\n\r\n  function distributeDividends(uint256 _dividendsCut) private {\r\n    uint256 totalPayout = getTotalPayout();\r\n\r\n    for (uint256 i = 0; i < phoenixes.length; i++) {\r\n      var phoenix = phoenixes[i];\r\n      var payout = _dividendsCut.mul(phoenix.dividendPayout).div(totalPayout);\r\n      userFunds[phoenix.currentOwner] = userFunds[phoenix.currentOwner].add(payout);\r\n    }\r\n  }\r\n\r\n  function getTotalPayout() private view returns(uint256) {\r\n    uint256 totalPayout = 0;\r\n\r\n    for (uint256 i = 0; i < phoenixes.length; i++) {\r\n      var phoenix = phoenixes[i];\r\n      totalPayout = totalPayout.add(phoenix.dividendPayout);\r\n    }\r\n\r\n    return totalPayout;\r\n  }\r\n    \r\n//Note that the previous and current owner will be the same person after this function is called\r\n  function explodePhoenix(uint256 _phoenixId) whenNotPaused public {\r\n      Phoenix phoenix = phoenixes[_phoenixId];\r\n      require(msg.sender == phoenix.currentOwner);\r\n      require(PHOENIX_POOL > 0);\r\n      require(now >= phoenix.nextExplosionTime);\r\n      \r\n      uint256 payout = phoenix.explosivePower.mul(PHOENIX_POOL).div(EXPLOSION_DENOMINATOR);\r\n\r\n      //subtract from phoenix_POOL\r\n      PHOENIX_POOL = PHOENIX_POOL.sub(payout);\r\n      \r\n      //decrease phoenix price\r\n      if (phoenix.price >= PRICE_CUTOFF) {\r\n        phoenix.price = phoenix.price.mul(HIGHER_PRICE_RESET_PERCENTAGE).div(100);\r\n      } else {\r\n        phoenix.price = phoenix.price.mul(LOWER_PRICE_RESET_PERCENTAGE).div(100);\r\n        if (phoenix.price < BASE_PRICE) {\r\n          phoenix.price = BASE_PRICE;\r\n          }\r\n      }\r\n\r\n      // set previous owner to be current owner, so he can get extra dividends next round\r\n      phoenix.previousOwner = msg.sender;\r\n      // reset cooldown\r\n      phoenix.nextExplosionTime = now + (phoenix.cooldown * 1 minutes);\r\n      \r\n      // Finally, payout to user\r\n      sendFunds(msg.sender,payout);\r\n      \r\n      //raise event\r\n      PhoenixExploded(_phoenixId, msg.sender, payout, phoenix.price, phoenix.nextExplosionTime);\r\n  }\r\n  \r\n/**\r\n* @dev Try to send funds immediately\r\n* If it fails, user has to manually withdraw.\r\n*/\r\n  function sendFunds(address _user, uint256 _payout) private {\r\n    if (!_user.send(_payout)) {\r\n      userFunds[_user] = userFunds[_user].add(_payout);\r\n    }\r\n  }\r\n\r\n/**\r\n* @dev Withdraw dev cut.\r\n*/\r\n  function devWithdraw() public {\r\n    uint256 funds = devFunds[msg.sender];\r\n    require(funds > 0);\r\n    devFunds[msg.sender] = 0;\r\n    msg.sender.transfer(funds);\r\n  }\r\n\r\n/**\r\n* @dev Users can withdraw their accumulated dividends\r\n*/\r\n  function withdrawFunds() public {\r\n    uint256 funds = userFunds[msg.sender];\r\n    require(funds > 0);\r\n    userFunds[msg.sender] = 0;\r\n    msg.sender.transfer(funds);\r\n    WithdrewFunds(msg.sender);\r\n  }\r\n\r\n/**\r\n* @dev In the event where something goes wrong, or a better version of the contract is created\r\n*/\r\n  function upgradeContract(address _newContract) public onlyOwner {\r\n    _newContract.transfer(this.balance);\r\n  }\r\n}",
  "sourcePath": "/mnt/d/ETH/Solidity/CryptoPhoenixes/contracts/CryptoPhoenixes.sol",
  "compiler": {
    "name": "solc",
    "version": "0.4.19+commit.c4cbbb05.Emscripten.clang"
  },
  "schemaVersion": "2.0.0",
  "updatedAt": "2018-03-10T03:47:09.429Z"
}