{
  "contractName": "CryptoPhoenixes",
  "abi": [
    {
      "constant": false,
      "inputs": [],
      "name": "closeBeta",
      "outputs": [],
      "payable": false,
      "stateMutability": "nonpayable",
      "type": "function"
    },
    {
      "constant": true,
      "inputs": [],
      "name": "EXPLOSION_DENOMINATOR",
      "outputs": [
        {
          "name": "",
          "type": "uint256"
        }
      ],
      "payable": false,
      "stateMutability": "view",
      "type": "function"
    },
    {
      "constant": false,
      "inputs": [
        {
          "name": "_payoutPercentages",
          "type": "uint256[]"
        },
        {
          "name": "_explosivePowers",
          "type": "uint256[]"
        },
        {
          "name": "_cooldowns",
          "type": "uint256[]"
        }
      ],
      "name": "createMultiplePhoenixes",
      "outputs": [],
      "payable": false,
      "stateMutability": "nonpayable",
      "type": "function"
    },
    {
      "constant": false,
      "inputs": [],
      "name": "withdrawFunds",
      "outputs": [],
      "payable": false,
      "stateMutability": "nonpayable",
      "type": "function"
    },
    {
      "constant": false,
      "inputs": [],
      "name": "unpause",
      "outputs": [],
      "payable": false,
      "stateMutability": "nonpayable",
      "type": "function"
    },
    {
      "constant": true,
      "inputs": [
        {
          "name": "_phoenixId",
          "type": "uint256"
        }
      ],
      "name": "getPhoenix",
      "outputs": [
        {
          "name": "price",
          "type": "uint256"
        },
        {
          "name": "nextPrice",
          "type": "uint256"
        },
        {
          "name": "dividendPayout",
          "type": "uint256"
        },
        {
          "name": "effectivePayout",
          "type": "uint256"
        },
        {
          "name": "explosivePower",
          "type": "uint256"
        },
        {
          "name": "cooldown",
          "type": "uint256"
        },
        {
          "name": "nextExplosionTime",
          "type": "uint256"
        },
        {
          "name": "previousOwner",
          "type": "address"
        },
        {
          "name": "currentOwner",
          "type": "address"
        }
      ],
      "payable": false,
      "stateMutability": "view",
      "type": "function"
    },
    {
      "constant": false,
      "inputs": [
        {
          "name": "_percentage",
          "type": "uint256"
        }
      ],
      "name": "setLowerPricePercentage",
      "outputs": [],
      "payable": false,
      "stateMutability": "nonpayable",
      "type": "function"
    },
    {
      "constant": true,
      "inputs": [],
      "name": "paused",
      "outputs": [
        {
          "name": "",
          "type": "bool"
        }
      ],
      "payable": false,
      "stateMutability": "view",
      "type": "function"
    },
    {
      "constant": false,
      "inputs": [
        {
          "name": "_phoenixId",
          "type": "uint256"
        },
        {
          "name": "_payoutPercentage",
          "type": "uint256"
        }
      ],
      "name": "setDividendPayout",
      "outputs": [],
      "payable": false,
      "stateMutability": "nonpayable",
      "type": "function"
    },
    {
      "constant": true,
      "inputs": [],
      "name": "HIGHER_PRICE_RESET_PERCENTAGE",
      "outputs": [
        {
          "name": "",
          "type": "uint256"
        }
      ],
      "payable": false,
      "stateMutability": "view",
      "type": "function"
    },
    {
      "constant": false,
      "inputs": [
        {
          "name": "_price",
          "type": "uint256"
        }
      ],
      "name": "setPriceCutoff",
      "outputs": [],
      "payable": false,
      "stateMutability": "nonpayable",
      "type": "function"
    },
    {
      "constant": true,
      "inputs": [
        {
          "name": "",
          "type": "address"
        }
      ],
      "name": "devFunds",
      "outputs": [
        {
          "name": "",
          "type": "uint256"
        }
      ],
      "payable": false,
      "stateMutability": "view",
      "type": "function"
    },
    {
      "constant": false,
      "inputs": [
        {
          "name": "_phoenixId",
          "type": "uint256"
        }
      ],
      "name": "explodePhoenix",
      "outputs": [],
      "payable": false,
      "stateMutability": "nonpayable",
      "type": "function"
    },
    {
      "constant": false,
      "inputs": [
        {
          "name": "_phoenixId",
          "type": "uint256"
        },
        {
          "name": "_explosivePower",
          "type": "uint256"
        }
      ],
      "name": "setExplosivePower",
      "outputs": [],
      "payable": false,
      "stateMutability": "nonpayable",
      "type": "function"
    },
    {
      "constant": true,
      "inputs": [
        {
          "name": "",
          "type": "address"
        }
      ],
      "name": "userFunds",
      "outputs": [
        {
          "name": "",
          "type": "uint256"
        }
      ],
      "payable": false,
      "stateMutability": "view",
      "type": "function"
    },
    {
      "constant": false,
      "inputs": [],
      "name": "pause",
      "outputs": [],
      "payable": false,
      "stateMutability": "nonpayable",
      "type": "function"
    },
    {
      "constant": true,
      "inputs": [],
      "name": "owner",
      "outputs": [
        {
          "name": "",
          "type": "address"
        }
      ],
      "payable": false,
      "stateMutability": "view",
      "type": "function"
    },
    {
      "constant": false,
      "inputs": [
        {
          "name": "_payoutPercentage",
          "type": "uint256"
        },
        {
          "name": "_explosivePower",
          "type": "uint256"
        },
        {
          "name": "_cooldown",
          "type": "uint256"
        }
      ],
      "name": "createPhoenix",
      "outputs": [],
      "payable": false,
      "stateMutability": "nonpayable",
      "type": "function"
    },
    {
      "constant": false,
      "inputs": [
        {
          "name": "_phoenixId",
          "type": "uint256"
        }
      ],
      "name": "purchasePhoenix",
      "outputs": [],
      "payable": true,
      "stateMutability": "payable",
      "type": "function"
    },
    {
      "constant": false,
      "inputs": [
        {
          "name": "_phoenixId",
          "type": "uint256"
        },
        {
          "name": "_cooldown",
          "type": "uint256"
        }
      ],
      "name": "setCooldown",
      "outputs": [],
      "payable": false,
      "stateMutability": "nonpayable",
      "type": "function"
    },
    {
      "constant": false,
      "inputs": [
        {
          "name": "_percentage",
          "type": "uint256"
        }
      ],
      "name": "setHigherPricePercentage",
      "outputs": [],
      "payable": false,
      "stateMutability": "nonpayable",
      "type": "function"
    },
    {
      "constant": false,
      "inputs": [],
      "name": "devWithdraw",
      "outputs": [],
      "payable": false,
      "stateMutability": "nonpayable",
      "type": "function"
    },
    {
      "constant": true,
      "inputs": [],
      "name": "PHOENIX_POOL",
      "outputs": [
        {
          "name": "",
          "type": "uint256"
        }
      ],
      "payable": false,
      "stateMutability": "view",
      "type": "function"
    },
    {
      "constant": true,
      "inputs": [],
      "name": "LOWER_PRICE_RESET_PERCENTAGE",
      "outputs": [
        {
          "name": "",
          "type": "uint256"
        }
      ],
      "payable": false,
      "stateMutability": "view",
      "type": "function"
    },
    {
      "constant": false,
      "inputs": [
        {
          "name": "_amount",
          "type": "uint256"
        }
      ],
      "name": "setBasePrice",
      "outputs": [],
      "payable": false,
      "stateMutability": "nonpayable",
      "type": "function"
    },
    {
      "constant": true,
      "inputs": [],
      "name": "subDev",
      "outputs": [
        {
          "name": "",
          "type": "address"
        }
      ],
      "payable": false,
      "stateMutability": "view",
      "type": "function"
    },
    {
      "constant": true,
      "inputs": [],
      "name": "PRICE_CUTOFF",
      "outputs": [
        {
          "name": "",
          "type": "uint256"
        }
      ],
      "payable": false,
      "stateMutability": "view",
      "type": "function"
    },
    {
      "constant": true,
      "inputs": [],
      "name": "ALLOW_BETA",
      "outputs": [
        {
          "name": "",
          "type": "bool"
        }
      ],
      "payable": false,
      "stateMutability": "view",
      "type": "function"
    },
    {
      "constant": true,
      "inputs": [],
      "name": "BASE_PRICE",
      "outputs": [
        {
          "name": "",
          "type": "uint256"
        }
      ],
      "payable": false,
      "stateMutability": "view",
      "type": "function"
    },
    {
      "inputs": [
        {
          "name": "_subDev",
          "type": "address"
        }
      ],
      "payable": false,
      "stateMutability": "nonpayable",
      "type": "constructor"
    },
    {
      "anonymous": false,
      "inputs": [
        {
          "indexed": false,
          "name": "_phoenixId",
          "type": "uint256"
        },
        {
          "indexed": false,
          "name": "oldOwner",
          "type": "address"
        },
        {
          "indexed": false,
          "name": "newOwner",
          "type": "address"
        },
        {
          "indexed": false,
          "name": "price",
          "type": "uint256"
        },
        {
          "indexed": false,
          "name": "nextPrice",
          "type": "uint256"
        }
      ],
      "name": "PhoenixPurchased",
      "type": "event"
    },
    {
      "anonymous": false,
      "inputs": [
        {
          "indexed": false,
          "name": "phoenixId",
          "type": "uint256"
        },
        {
          "indexed": false,
          "name": "owner",
          "type": "address"
        },
        {
          "indexed": false,
          "name": "payout",
          "type": "uint256"
        },
        {
          "indexed": false,
          "name": "price",
          "type": "uint256"
        },
        {
          "indexed": false,
          "name": "nextExplosionTime",
          "type": "uint256"
        }
      ],
      "name": "PhoenixExploded",
      "type": "event"
    },
    {
      "anonymous": false,
      "inputs": [
        {
          "indexed": false,
          "name": "owner",
          "type": "address"
        }
      ],
      "name": "WithdrewFunds",
      "type": "event"
    },
    {
      "anonymous": false,
      "inputs": [],
      "name": "Pause",
      "type": "event"
    },
    {
      "anonymous": false,
      "inputs": [],
      "name": "Unpause",
      "type": "event"
    }
  ],
  "bytecode": "0x60606040526000805460a060020a60ff02191690556103e86004556005805460ff191660011790556608e1bc9bf04000600955670de0b6b3a7640000600a9081556014600b55600c55341561005357600080fd5b6040516020806116ae8339810160405280805160008054600160a060020a03338116600160a060020a0319928316179092556276a7004201600655600180549290931691161790555050611602806100ac6000396000f3006060604052600436106101745763ffffffff7c01000000000000000000000000000000000000000000000000000000006000350416630872c813811461017957806314e604b61461018e5780631751dc90146101b357806324600fc3146102825780633f4ba83a14610295578063454aa6cf146102a857806355e7a663146103165780635c975abb1461032c5780635e0be75c1461035357806362dc01331461036c5780637365e1fd1461037f57806373e945f614610395578063777a5dc5146103b45780637b3cf41a146103ca5780638387c6e1146103e35780638456cb59146104025780638da5cb5b146104155780639853b23414610444578063a48296d914610460578063a50ed19b1461046b578063ad559fd614610484578063ad606c721461049a578063ba081b8d146104ad578063dc35a6bd146104c0578063de4b3262146104d3578063eea4cf1c146104e9578063f2e34909146104fc578063f37a9c1c1461050f578063f86325ed14610522575b600080fd5b341561018457600080fd5b61018c610535565b005b341561019957600080fd5b6101a1610550565b60405190815260200160405180910390f35b34156101be57600080fd5b61018c6004602481358181019083013580602081810201604051908101604052809392919081815260200183836020028082843782019150505050505091908035906020019082018035906020019080806020026020016040519081016040528093929190818152602001838360200280828437820191505050505050919080359060200190820180359060200190808060200260200160405190810160405280939291908181526020018383602002808284375094965061055695505050505050565b341561028d57600080fd5b61018c6105f3565b34156102a057600080fd5b61018c61069c565b34156102b357600080fd5b6102be60043561072c565b60405198895260208901979097526040808901969096526060880194909452608087019290925260a086015260c0850152600160a060020a0390811660e0850152909116610100830152610120909101905180910390f35b341561032157600080fd5b61018c6004356107e0565b341561033757600080fd5b61033f61082b565b604051901515815260200160405180910390f35b341561035e57600080fd5b61018c60043560243561084c565b341561037757600080fd5b6101a16108a2565b341561038a57600080fd5b61018c6004356108a8565b34156103a057600080fd5b6101a1600160a060020a03600435166108c8565b34156103bf57600080fd5b61018c6004356108da565b34156103d557600080fd5b61018c600435602435610aaa565b34156103ee57600080fd5b6101a1600160a060020a0360043516610b00565b341561040d57600080fd5b61018c610b12565b341561042057600080fd5b610428610bb8565b604051600160a060020a03909116815260200160405180910390f35b341561044f57600080fd5b61018c600435602435604435610bc7565b61018c600435610cf6565b341561047657600080fd5b61018c600435602435611065565b341561048f57600080fd5b61018c6004356110bb565b34156104a557600080fd5b61018c611106565b34156104b857600080fd5b6101a1611172565b34156104cb57600080fd5b6101a1611178565b34156104de57600080fd5b61018c60043561117e565b34156104f457600080fd5b6104286111ab565b341561050757600080fd5b6101a16111ba565b341561051a57600080fd5b61033f6111c0565b341561052d57600080fd5b6101a16111c9565b60065442101561054457600080fd5b6005805460ff19169055565b60045481565b6000805433600160a060020a0390811691161461057257600080fd5b825184511461058057600080fd5b815183511461058e57600080fd5b5060005b83518110156105ed576105e58482815181106105aa57fe5b906020019060200201518483815181106105c057fe5b906020019060200201518484815181106105d657fe5b90602001906020020151610bc7565b600101610592565b50505050565b600160a060020a03331660009081526008602052604081205490811161061857600080fd5b600160a060020a0333166000818152600860205260408082209190915582156108fc0290839051600060405180830381858888f19350505050151561065c57600080fd5b7f361d758177a1a273ab3bf5e9ae4cc4f6923af295c0e99ad3d02593c5ab8e62d433604051600160a060020a03909116815260200160405180910390a150565b60005433600160a060020a039081169116146106b757600080fd5b60005474010000000000000000000000000000000000000000900460ff1615156106e057600080fd5b6000805474ff0000000000000000000000000000000000000000191690557f7805862f689e2f13df9f062ff482ad3ad112aca9e0847911ed832e158c525b3360405160405180910390a1565b60008060008060008060008060008060028b81548110151561074a57fe5b6000918252602090912060079091020180549a5090506107698a6111cf565b9850806001015497506107a061077d61123f565b60018301546107949061271063ffffffff61129916565b9063ffffffff6112c416565b60028201546003830154600484015460058501546006909501549d9f9c9e509a9c929b919a9099509750600160a060020a03928316965091169350915050565b60005433600160a060020a039081169116146107fb57600080fd5b60055460ff16151561080c57600080fd5b6000811161081957600080fd5b6064811061082657600080fd5b600c55565b60005474010000000000000000000000000000000000000000900460ff1681565b6000805433600160a060020a0390811691161461086857600080fd5b60055460ff16151561087957600080fd5b600280548490811061088757fe5b60009182526020909120600160079092020101919091555050565b600b5481565b60005433600160a060020a039081169116146108c357600080fd5b600a55565b60076020526000908152604090205481565b60008054819074010000000000000000000000000000000000000000900460ff161561090557600080fd5b600280548490811061091357fe5b6000918252602090912060066007909202019081015490925033600160a060020a0390811691161461094457600080fd5b6003546000901161095457600080fd5b600482015442101561096557600080fd5b610984600454610794600354856002015461129990919063ffffffff16565b60035490915061099a908263ffffffff6112db16565b600355600a548254106109c957600b5482546109c2916064916107949163ffffffff61129916565b82556109f7565b600c5482546109e4916064916107949163ffffffff61129916565b8083556009549010156109f75760095482555b60058201805473ffffffffffffffffffffffffffffffffffffffff191633600160a060020a038116919091179091556003830154603c0242016004840155610a3f90826112ed565b7f2218cceca87d9faf8cc3b57bf49c55a8485e836c8ae02819386ccdca6bab626383338385600001548660040154604051948552600160a060020a0390931660208501526040808501929092526060840152608083019190915260a0909101905180910390a1505050565b6000805433600160a060020a03908116911614610ac657600080fd5b60055460ff161515610ad757600080fd5b6002805484908110610ae557fe5b60009182526020909120600260079092020101919091555050565b60086020526000908152604090205481565b60005433600160a060020a03908116911614610b2d57600080fd5b60005474010000000000000000000000000000000000000000900460ff1615610b5557600080fd5b6000805474ff00000000000000000000000000000000000000001916740100000000000000000000000000000000000000001790557f6985a02210a168e66602d3235cb6db0e70f92b3ba4d376a33c0f3d9434bff62560405160405180910390a1565b600054600160a060020a031681565b610bcf6114ec565b60005433600160a060020a03908116911614610bea57600080fd5b60e06040519081016040528060095481526020018581526020018481526020018381526020014281526020016000600160a060020a0316815260200130600160a060020a0316815250905060028054806001018281610c49919061153c565b60009283526020909220839160070201815181556020820151816001015560408201518160020155606082015181600301556080820151816004015560a082015160058201805473ffffffffffffffffffffffffffffffffffffffff1916600160a060020a039290921691909117905560c0820151600691909101805473ffffffffffffffffffffffffffffffffffffffff1916600160a060020a03909216919091179055505050505050565b60008060008060008060008060008060008060149054906101000a900460ff16151515610d2257600080fd5b600280548d908110610d3057fe5b6000918252602082206007909102018054909c509a508a11610d5157600080fd5b348a901015610d5f57600080fd5b33600160a060020a031688600160a060020a031614151515610d8057600080fd5b60058b015460068c0154600160a060020a039182169a50169750610daa348b63ffffffff6112db16565b9150600160a060020a0389161515610de75760058b01805473ffffffffffffffffffffffffffffffffffffffff191633600160a060020a03161790555b610df08a611360565b92995090975095509350610e0a8a8863ffffffff6112db16565b9050610e1c818763ffffffff6112db16565b9050610e2e818663ffffffff6112db16565b9050610e40818563ffffffff6112db16565b9050610e58606461079484600263ffffffff61129916565b9250610e6a828463ffffffff6112db16565b9150610e7c848463ffffffff6113c116565b9350610e878a6111cf565b8b5560068b01805473ffffffffffffffffffffffffffffffffffffffff191633600160a060020a0316179055610eeb610ec6600a6107948a6007611299565b60008054600160a060020a03168152600760205260409020549063ffffffff6113c116565b60008054600160a060020a0316815260076020526040902055610f44610f1d600a6107948a600363ffffffff61129916565b600154600160a060020a03166000908152600760205260409020549063ffffffff6113c116565b600154600160a060020a0316600090815260076020526040902055610f68866113d0565b600160a060020a038916600090815260086020526040902054610f91908663ffffffff6113c116565b600160a060020a038a16600090815260086020526040902055600354610fbd908563ffffffff6113c116565b60035530600160a060020a0390811690891614610fde57610fde88826112ed565b6000821115610ff157610ff133836112ed565b7fcdf3c356cd1a0a236d7d516f4346546464f1933182a296d2da4bd5dacaeab0d28c89338d8f60000154604051948552600160a060020a039384166020860152919092166040808501919091526060840192909252608083015260a0909101905180910390a1505050505050505050505050565b6000805433600160a060020a0390811691161461108157600080fd5b60055460ff16151561109257600080fd5b60028054849081106110a057fe5b60009182526020909120600360079092020101919091555050565b60005433600160a060020a039081169116146110d657600080fd5b60055460ff1615156110e757600080fd5b600081116110f457600080fd5b6064811061110157600080fd5b600b55565b600160a060020a03331660009081526007602052604081205490811161112b57600080fd5b600160a060020a0333166000818152600760205260408082209190915582156108fc0290839051600060405180830381858888f19350505050151561116f57600080fd5b50565b60035481565b600c5481565b60005433600160a060020a0390811691161461119957600080fd5b600081116111a657600080fd5b600955565b600154600160a060020a031681565b600a5481565b60055460ff1681565b60095481565b60006703782dace9d900008210156111fe576111f7606461079484608c63ffffffff61129916565b905061123a565b670de0b6b3a7640000821015611224576111f7606461079484608263ffffffff61129916565b6111f7606461079484607d63ffffffff61129916565b919050565b60008080805b60025482101561129157600280548390811061125d57fe5b906000526020600020906007020190506112848160010154846113c190919063ffffffff16565b9250600190910190611245565b509092915050565b60008282028315806112b557508284828115156112b257fe5b04145b15156112bd57fe5b9392505050565b60008082848115156112d257fe5b04949350505050565b6000828211156112e757fe5b50900390565b600160a060020a03821681156108fc0282604051600060405180830381858888f19350505050151561135c57600160a060020a038216600090815260086020526040902054611342908263ffffffff6113c116565b600160a060020a0383166000908152600860205260409020555b5050565b600080808061137b606461079487600263ffffffff61129916565b93506113946103e861079487601963ffffffff61129916565b92506113ad6103e861079487600563ffffffff61129916565b91506113b885611488565b90509193509193565b6000828201838110156112bd57fe5b6000806000806113de61123f565b9350600092505b6002548310156114815760028054849081106113fd57fe5b906000526020600020906007020191506114288461079484600101548861129990919063ffffffff16565b6006830154600160a060020a0316600090815260086020526040902054909150611458908263ffffffff6113c116565b6006830154600160a060020a0316600090815260086020526040902055600192909201916113e5565b5050505050565b60006703782dace9d900008210156114b0576111f7606461079484600c63ffffffff61129916565b670de0b6b3a76400008210156114d6576111f7606461079484600b63ffffffff61129916565b6111f7606461079484600a63ffffffff61129916565b60e06040519081016040528060008152602001600081526020016000815260200160008152602001600081526020016000600160a060020a031681526020016000600160a060020a031681525090565b81548183558181151161156857600702816007028360005260206000209182019101611568919061156d565b505050565b6115d391905b808211156115cf576000808255600182018190556002820181905560038201819055600482015560058101805473ffffffffffffffffffffffffffffffffffffffff199081169091556006820180549091169055600701611573565b5090565b905600a165627a7a72305820357ba121130d128454bce92dd267eb5b854f8d30e93abdf9a7533353f97727810029",
  "source": "pragma solidity ^0.4.18;\r\n\r\n/**\r\n * @title Ownable\r\n * @dev The Ownable contract has an owner address, and provides basic authorization control\r\n * functions, this simplifies the implementation of \"user permissions\".\r\n */\r\ncontract Ownable {\r\n  address public owner;\r\n\r\n  /**\r\n   * @dev The Ownable constructor sets the original `owner` of the contract to the sender\r\n   * account.\r\n   */\r\n  function Ownable() public {\r\n    owner = msg.sender;\r\n  }\r\n\r\n  /**\r\n   * @dev Throws if called by any account other than the owner.\r\n   */\r\n  modifier onlyOwner() {\r\n    require(msg.sender == owner);\r\n    _;\r\n  }\r\n\r\n}\r\n\r\n/**\r\n * @title Pausable\r\n * @dev Base contract which allows children to implement an emergency stop mechanism.\r\n */\r\ncontract Pausable is Ownable {\r\n  event Pause();\r\n  event Unpause();\r\n\r\n  bool public paused = false;\r\n\r\n\r\n  /**\r\n   * @dev Modifier to make a function callable only when the contract is not paused.\r\n   */\r\n  modifier whenNotPaused() {\r\n    require(!paused);\r\n    _;\r\n  }\r\n\r\n  /**\r\n   * @dev Modifier to make a function callable only when the contract is paused.\r\n   */\r\n  modifier whenPaused() {\r\n    require(paused);\r\n    _;\r\n  }\r\n\r\n  /**\r\n   * @dev called by the owner to pause, triggers stopped state\r\n   */\r\n  function pause() onlyOwner whenNotPaused public {\r\n    paused = true;\r\n    Pause();\r\n  }\r\n\r\n  /**\r\n   * @dev called by the owner to unpause, returns to normal state\r\n   */\r\n  function unpause() onlyOwner whenPaused public {\r\n    paused = false;\r\n    Unpause();\r\n  }\r\n}\r\n\r\n/**\r\n * @title SafeMath\r\n * @dev Math operations with safety checks that throw on error\r\n */\r\nlibrary SafeMath {\r\n  function mul(uint256 a, uint256 b) internal pure returns (uint256) {\r\n    uint256 c = a * b;\r\n    assert(a == 0 || c / a == b);\r\n    return c;\r\n  }\r\n\r\n  function div(uint256 a, uint256 b) internal pure returns (uint256) {\r\n    // assert(b > 0); // Solidity automatically throws when dividing by 0\r\n    uint256 c = a / b;\r\n    // assert(a == b * c + a % b); // There is no case in which this doesn't hold\r\n    return c;\r\n  }\r\n\r\n  function sub(uint256 a, uint256 b) internal pure returns (uint256) {\r\n    assert(b <= a);\r\n    return a - b;\r\n  }\r\n  \r\n  function add(uint256 a, uint256 b) internal pure returns (uint256) {\r\n    uint256 c = a + b;\r\n    assert(c >= a);\r\n    return c;\r\n  }\r\n}\r\n\r\ncontract CryptoPhoenixes is Ownable, Pausable {\r\n  using SafeMath for uint256;\r\n\r\n  address public subDev;\r\n  Phoenix[] private phoenixes;\r\n  uint256 public PHOENIX_POOL;\r\n  uint256 public EXPLOSION_DENOMINATOR = 1000; //Eg explosivePower = 30 -> 3%\r\n  bool public ALLOW_BETA = true;\r\n  uint BETA_CUTOFF;\r\n\r\n  // devFunds\r\n  mapping (address => uint256) public devFunds;\r\n\r\n  // dividends\r\n  mapping (address => uint256) public userFunds;\r\n\r\n  // Events\r\n  event PhoenixPurchased(\r\n    uint256 _phoenixId,\r\n    address oldOwner,\r\n    address newOwner,\r\n    uint256 price,\r\n    uint256 nextPrice\r\n  );\r\n  \r\n  event PhoenixExploded(\r\n      uint256 phoenixId,\r\n      address owner,\r\n      uint256 payout,\r\n      uint256 price,\r\n      uint nextExplosionTime\r\n  );\r\n\r\n  event WithdrewFunds(\r\n    address owner\r\n  );\r\n\r\n  // Caps for price changes and cutoffs\r\n  uint256 constant private QUARTER_ETH_CAP  = 0.25 ether;\r\n  uint256 constant private ONE_ETH_CAP  = 1.0 ether;\r\n  uint256 public BASE_PRICE = 0.0025 ether;\r\n  uint256 public PRICE_CUTOFF = 1.0 ether;\r\n  uint256 public HIGHER_PRICE_RESET_PERCENTAGE = 20;\r\n  uint256 public LOWER_PRICE_RESET_PERCENTAGE = 10;\r\n\r\n  // Struct to store Phoenix Data\r\n  struct Phoenix {\r\n    uint256 price;  // Current price of phoenix\r\n    uint256 dividendPayout; // The percent of the dividends pool rewarded\r\n    uint256 explosivePower; // Percentage that phoenix can claim from PHOENIX_POOL after explode() function is called\r\n    uint cooldown; // Time it takes for phoenix to recharge till next explosion\r\n    uint nextExplosionTime; // Time of next explosion\r\n    address previousOwner;  // Owner of the phoenix who triggered explosion in previous round\r\n    address currentOwner; // Owner of phoenix in current round\r\n  }\r\n\r\n// Check if game is in beta or not. Certain functions will be disabled after beta period ends.\r\n  modifier inBeta() {\r\n    require(ALLOW_BETA);\r\n    _;\r\n  }\r\n\r\n// Main function to set the beta period and sub developer\r\n  function CryptoPhoenixes(address _subDev) {\r\n    BETA_CUTOFF = now + 90 * 1 days; //Allow 3 months to tweak parameters\r\n    subDev = _subDev;\r\n  }\r\n  \r\n// Function anyone can call to turn off beta, thus disabling some functions\r\n  function closeBeta() {\r\n    require(now >= BETA_CUTOFF);\r\n    ALLOW_BETA = false;\r\n  }\r\n\r\n  function createPhoenix(uint256 _payoutPercentage, uint256 _explosivePower, uint _cooldown) onlyOwner public {\r\n    \r\n    var phoenix = Phoenix({\r\n    price: BASE_PRICE,\r\n    dividendPayout: _payoutPercentage,\r\n    explosivePower: _explosivePower,\r\n    cooldown: _cooldown,\r\n    nextExplosionTime: now,\r\n    previousOwner: address(0),\r\n    currentOwner: this\r\n    });\r\n\r\n    phoenixes.push(phoenix);\r\n  }\r\n\r\n  function createMultiplePhoenixes(uint256[] _payoutPercentages, uint256[] _explosivePowers, uint[] _cooldowns) onlyOwner public {\r\n    require(_payoutPercentages.length == _explosivePowers.length);\r\n    require(_explosivePowers.length == _cooldowns.length);\r\n    \r\n    for (uint256 i = 0; i < _payoutPercentages.length; i++) {\r\n      createPhoenix(_payoutPercentages[i],_explosivePowers[i],_cooldowns[i]);\r\n    }\r\n  }\r\n\r\n  function getPhoenix(uint256 _phoenixId) public view returns (\r\n    uint256 price,\r\n    uint256 nextPrice,\r\n    uint256 dividendPayout,\r\n    uint256 effectivePayout,\r\n    uint256 explosivePower,\r\n    uint cooldown,\r\n    uint nextExplosionTime,\r\n    address previousOwner,\r\n    address currentOwner\r\n  ) {\r\n    var phoenix = phoenixes[_phoenixId];\r\n    price = phoenix.price;\r\n    nextPrice = getNextPrice(phoenix.price);\r\n    dividendPayout = phoenix.dividendPayout;\r\n    effectivePayout = phoenix.dividendPayout.mul(10000).div(getTotalPayout());\r\n    explosivePower = phoenix.explosivePower;\r\n    cooldown = phoenix.cooldown;\r\n    nextExplosionTime = phoenix.nextExplosionTime;\r\n    previousOwner = phoenix.previousOwner;\r\n    currentOwner = phoenix.currentOwner;\r\n  }\r\n\r\n/**\r\n  * @dev Determines next price of token\r\n  * @param _price uint256 ID of current price\r\n*/\r\n  function getNextPrice (uint256 _price) private pure returns (uint256 _nextPrice) {\r\n    if (_price < QUARTER_ETH_CAP) {\r\n      return _price.mul(140).div(100); //1.4x\r\n    } else if (_price < ONE_ETH_CAP) {\r\n      return _price.mul(130).div(100); //1.3x\r\n    } else {\r\n      return _price.mul(125).div(100); //1.25x\r\n    }\r\n  }\r\n\r\n/**\r\n  * @dev Set dividend payout of phoenix\r\n  * @param _phoenixId id of phoenix\r\n  * @param _payoutPercentage uint256 Desired payout percentage\r\n*/\r\n  function setDividendPayout (uint256 _phoenixId, uint256 _payoutPercentage) onlyOwner inBeta {\r\n    Phoenix phoenix = phoenixes[_phoenixId];\r\n    phoenix.dividendPayout = _payoutPercentage;\r\n  }\r\n\r\n/**\r\n  * @dev Set explosive power of phoenix\r\n  * @param _phoenixId id of phoenix\r\n  * @param _explosivePower uint256 Desired claimable percentage from PHOENIX_POOL\r\n*/\r\n  function setExplosivePower (uint256 _phoenixId, uint256 _explosivePower) onlyOwner inBeta {\r\n    Phoenix phoenix = phoenixes[_phoenixId];\r\n    phoenix.explosivePower = _explosivePower;\r\n  }\r\n\r\n/**\r\n  * @dev Set cooldown of phoenix\r\n  * @param _phoenixId id of phoenix\r\n  * @param _cooldown uint256 Desired cooldown time\r\n*/\r\n  function setCooldown (uint256 _phoenixId, uint256 _cooldown) onlyOwner inBeta {\r\n    Phoenix phoenix = phoenixes[_phoenixId];\r\n    phoenix.cooldown = _cooldown;\r\n  }\r\n\r\n/**\r\n  * @dev Set price cutoff when determining phoenix price after explosion. To adjust for ETH price fluctuations\r\n  * @param _price uint256 Price cutoff in wei\r\n*/\r\n  function setPriceCutoff (uint256 _price) onlyOwner {\r\n    PRICE_CUTOFF = _price;\r\n  }\r\n\r\n/**\r\n  * @dev Set price percentage for when price exceeds or equates to price cutoff to reset to\r\n  * @param _percentage uint256 Desired percentage\r\n*/\r\n  function setHigherPricePercentage (uint256 _percentage) onlyOwner inBeta {\r\n    require(_percentage > 0);\r\n    require(_percentage < 100);\r\n    HIGHER_PRICE_RESET_PERCENTAGE = _percentage;\r\n  }\r\n\r\n/**\r\n  * @dev Set price percentage for when price is lower than price cutoff to reset to\r\n  * @param _percentage uint256 Desired percentage\r\n*/\r\n  function setLowerPricePercentage (uint256 _percentage) onlyOwner inBeta {\r\n    require(_percentage > 0);\r\n    require(_percentage < 100);\r\n    LOWER_PRICE_RESET_PERCENTAGE = _percentage;\r\n  }\r\n\r\n/**\r\n  * @dev Set base price for phoenixes. To adjust for ETH price fluctuations\r\n  * @param _amount uint256 Desired amount in wei\r\n*/\r\n  function setBasePrice (uint256 _amount) onlyOwner {\r\n    require(_amount > 0);\r\n    BASE_PRICE = _amount;\r\n  }\r\n\r\n/**\r\n  * @dev Purchase show from previous owner\r\n  * @param _phoenixId uint256 of token\r\n*/\r\n  function purchasePhoenix(uint256 _phoenixId) whenNotPaused public payable {\r\n    Phoenix phoenix = phoenixes[_phoenixId];\r\n    //Get current price of phoenix\r\n    uint256 price = phoenix.price;\r\n\r\n    // revert checks\r\n    require(price > 0);\r\n    require(msg.value >= price);\r\n    //prevent multiple subsequent purchases\r\n    require(outgoingOwner != msg.sender);\r\n\r\n    //Get owners of phoenixes\r\n    address previousOwner = phoenix.previousOwner;\r\n    address outgoingOwner = phoenix.currentOwner;\r\n\r\n    //Define Cut variables\r\n    uint256 devCut;  \r\n    uint256 dividendsCut; \r\n    uint256 previousOwnerCut;\r\n    uint256 phoenixPoolCut;\r\n    uint256 phoenixPoolPurchaseExcessCut;\r\n    \r\n    //Calculate excess\r\n    uint256 purchaseExcess = msg.value.sub(price);\r\n\r\n    //handle boundary case where we assign previousOwner to the user\r\n    if (previousOwner == address(0)) {\r\n        phoenix.previousOwner = msg.sender;\r\n    }\r\n    \r\n    //Calculate cuts\r\n    (devCut,dividendsCut,previousOwnerCut,phoenixPoolCut) = calculateCuts(price);\r\n\r\n    // Amount payable to old owner minus the developer's and pools' cuts.\r\n    uint256 outgoingOwnerCut = price.sub(devCut);\r\n    outgoingOwnerCut = outgoingOwnerCut.sub(dividendsCut);\r\n    outgoingOwnerCut = outgoingOwnerCut.sub(previousOwnerCut);\r\n    outgoingOwnerCut = outgoingOwnerCut.sub(phoenixPoolCut);\r\n    \r\n    // Take 2% cut from leftovers of overbidding\r\n    phoenixPoolPurchaseExcessCut = purchaseExcess.mul(2).div(100);\r\n    purchaseExcess = purchaseExcess.sub(phoenixPoolPurchaseExcessCut);\r\n    phoenixPoolCut = phoenixPoolCut.add(phoenixPoolPurchaseExcessCut);\r\n\r\n    // set new price\r\n    phoenix.price = getNextPrice(price);\r\n\r\n    // set new owner\r\n    phoenix.currentOwner = msg.sender;\r\n\r\n    //Actual transfer\r\n    devFunds[owner] = devFunds[owner].add(devCut.mul(7).div(10)); //70% of dev cut goes to owner\r\n    devFunds[subDev] = devFunds[subDev].add(devCut.mul(3).div(10)); //30% goes to other dev\r\n    distributeDividends(dividendsCut);\r\n    userFunds[previousOwner] = userFunds[previousOwner].add(previousOwnerCut);\r\n    PHOENIX_POOL = PHOENIX_POOL.add(phoenixPoolCut);\r\n\r\n    //handle boundary case where we exclude currentOwner == address(this) when transferring funds\r\n    if (outgoingOwner != address(this)) {\r\n      sendFunds(outgoingOwner,outgoingOwnerCut);\r\n    }\r\n\r\n    // Send refund to owner if needed\r\n    if (purchaseExcess > 0) {\r\n      sendFunds(msg.sender,purchaseExcess);\r\n    }\r\n\r\n    // raise event\r\n    PhoenixPurchased(_phoenixId, outgoingOwner, msg.sender, price, phoenix.price);\r\n  }\r\n\r\n  function calculateCuts(uint256 _price) private pure returns (\r\n    uint256 devCut, \r\n    uint256 dividendsCut,\r\n    uint256 previousOwnerCut,\r\n    uint256 phoenixPoolCut\r\n    ) {\r\n      // Calculate cuts\r\n      // 2% goes to developers\r\n      devCut = _price.mul(2).div(100);\r\n\r\n      // 2.5% goes to dividends\r\n      dividendsCut = _price.mul(25).div(1000); \r\n\r\n      // 0.5% goes to owner of phoenix in previous exploded round\r\n      previousOwnerCut = _price.mul(5).div(1000);\r\n\r\n      // 10-12% goes to phoenix pool\r\n      phoenixPoolCut = calculatePhoenixPoolCut(_price);\r\n    }\r\n\r\n  function calculatePhoenixPoolCut (uint256 _price) private pure returns (uint256 _poolCut) {\r\n      if (_price < QUARTER_ETH_CAP) {\r\n          return _price.mul(12).div(100); //12%\r\n      } else if (_price < ONE_ETH_CAP) {\r\n          return _price.mul(11).div(100); //11%\r\n      } else {\r\n          return _price.mul(10).div(100); //10%\r\n      }\r\n  }\r\n\r\n  function distributeDividends(uint256 _dividendsCut) private {\r\n    uint256 totalPayout = getTotalPayout();\r\n\r\n    for (uint256 i = 0; i < phoenixes.length; i++) {\r\n      var phoenix = phoenixes[i];\r\n      var payout = _dividendsCut.mul(phoenix.dividendPayout).div(totalPayout);\r\n      userFunds[phoenix.currentOwner] = userFunds[phoenix.currentOwner].add(payout);\r\n    }\r\n  }\r\n\r\n  function getTotalPayout() private view returns(uint256) {\r\n    uint256 totalPayout = 0;\r\n\r\n    for (uint256 i = 0; i < phoenixes.length; i++) {\r\n      var phoenix = phoenixes[i];\r\n      totalPayout = totalPayout.add(phoenix.dividendPayout);\r\n    }\r\n\r\n    return totalPayout;\r\n  }\r\n    \r\n//Note that the previous and current owner will be the same person after this function is called\r\n  function explodePhoenix(uint256 _phoenixId) whenNotPaused public {\r\n      Phoenix phoenix = phoenixes[_phoenixId];\r\n      require(msg.sender == phoenix.currentOwner);\r\n      require(PHOENIX_POOL > 0);\r\n      require(now >= phoenix.nextExplosionTime);\r\n      \r\n      uint256 payout = phoenix.explosivePower.mul(PHOENIX_POOL).div(EXPLOSION_DENOMINATOR);\r\n\r\n      //subtract from phoenix_POOL\r\n      PHOENIX_POOL = PHOENIX_POOL.sub(payout);\r\n      \r\n      //decrease phoenix price\r\n      if (phoenix.price >= PRICE_CUTOFF) {\r\n        phoenix.price = phoenix.price.mul(HIGHER_PRICE_RESET_PERCENTAGE).div(100);\r\n      } else {\r\n        phoenix.price = phoenix.price.mul(LOWER_PRICE_RESET_PERCENTAGE).div(100);\r\n        if (phoenix.price < BASE_PRICE) {\r\n          phoenix.price = BASE_PRICE;\r\n          }\r\n      }\r\n\r\n      // set previous owner to be current owner, so he can get extra dividends next round\r\n      phoenix.previousOwner = msg.sender;\r\n      // reset cooldown\r\n      phoenix.nextExplosionTime = now + (phoenix.cooldown * 1 minutes);\r\n      \r\n      // Finally, payout to user\r\n      sendFunds(msg.sender,payout);\r\n      \r\n      //raise event\r\n      PhoenixExploded(_phoenixId, msg.sender, payout, phoenix.price, phoenix.nextExplosionTime);\r\n  }\r\n  \r\n/**\r\n* @dev Try to send funds immediately\r\n* If it fails, user has to manually withdraw.\r\n*/\r\n  function sendFunds(address _user, uint256 _payout) private {\r\n    if (!_user.send(_payout)) {\r\n      userFunds[_user] = userFunds[_user].add(_payout);\r\n    }\r\n  }\r\n\r\n/**\r\n* @dev Withdraw dev cut.\r\n*/\r\n  function devWithdraw() public {\r\n    uint256 funds = devFunds[msg.sender];\r\n    require(funds > 0);\r\n    devFunds[msg.sender] = 0;\r\n    msg.sender.transfer(funds);\r\n  }\r\n\r\n/**\r\n* @dev Users can withdraw their accumulated dividends\r\n*/\r\n  function withdrawFunds() public {\r\n    uint256 funds = userFunds[msg.sender];\r\n    require(funds > 0);\r\n    userFunds[msg.sender] = 0;\r\n    msg.sender.transfer(funds);\r\n    WithdrewFunds(msg.sender);\r\n  }\r\n}",
  "sourcePath": "/mnt/d/ETH/Solidity/CryptoPhoenixes/contracts/CryptoPhoenixes.sol",
  "compiler": {
    "name": "solc",
    "version": "0.4.19+commit.c4cbbb05.Emscripten.clang"
  },
  "schemaVersion": "2.0.0",
  "updatedAt": "2018-03-11T13:31:52.219Z"
}